{
  "contractName": "FPNFT",
  "abi": [
    {
      "inputs": [
        {
          "internalType": "string",
          "name": "name",
          "type": "string"
        },
        {
          "internalType": "string",
          "name": "symbol",
          "type": "string"
        },
        {
          "internalType": "string",
          "name": "baseURI_",
          "type": "string"
        }
      ],
      "stateMutability": "nonpayable",
      "type": "constructor"
    },
    {
      "anonymous": false,
      "inputs": [
        {
          "indexed": true,
          "internalType": "address",
          "name": "owner",
          "type": "address"
        },
        {
          "indexed": true,
          "internalType": "address",
          "name": "approved",
          "type": "address"
        },
        {
          "indexed": true,
          "internalType": "uint256",
          "name": "tokenId",
          "type": "uint256"
        }
      ],
      "name": "Approval",
      "type": "event"
    },
    {
      "anonymous": false,
      "inputs": [
        {
          "indexed": true,
          "internalType": "address",
          "name": "owner",
          "type": "address"
        },
        {
          "indexed": true,
          "internalType": "address",
          "name": "operator",
          "type": "address"
        },
        {
          "indexed": false,
          "internalType": "bool",
          "name": "approved",
          "type": "bool"
        }
      ],
      "name": "ApprovalForAll",
      "type": "event"
    },
    {
      "anonymous": false,
      "inputs": [
        {
          "indexed": true,
          "internalType": "address",
          "name": "previousOwner",
          "type": "address"
        },
        {
          "indexed": true,
          "internalType": "address",
          "name": "newOwner",
          "type": "address"
        }
      ],
      "name": "OwnershipTransferred",
      "type": "event"
    },
    {
      "anonymous": false,
      "inputs": [
        {
          "indexed": true,
          "internalType": "address",
          "name": "from",
          "type": "address"
        },
        {
          "indexed": true,
          "internalType": "address",
          "name": "to",
          "type": "address"
        },
        {
          "indexed": true,
          "internalType": "uint256",
          "name": "tokenId",
          "type": "uint256"
        }
      ],
      "name": "Transfer",
      "type": "event"
    },
    {
      "inputs": [],
      "name": "MAX_MINT_COUNT_PER_ADRESS",
      "outputs": [
        {
          "internalType": "uint256",
          "name": "",
          "type": "uint256"
        }
      ],
      "stateMutability": "view",
      "type": "function",
      "constant": true
    },
    {
      "inputs": [],
      "name": "MAX_MINT_COUNT_PER_TX",
      "outputs": [
        {
          "internalType": "uint256",
          "name": "",
          "type": "uint256"
        }
      ],
      "stateMutability": "view",
      "type": "function",
      "constant": true
    },
    {
      "inputs": [],
      "name": "MINT_PRICE",
      "outputs": [
        {
          "internalType": "uint256",
          "name": "",
          "type": "uint256"
        }
      ],
      "stateMutability": "view",
      "type": "function",
      "constant": true
    },
    {
      "inputs": [],
      "name": "TOTAL_SUPPLY",
      "outputs": [
        {
          "internalType": "uint256",
          "name": "",
          "type": "uint256"
        }
      ],
      "stateMutability": "view",
      "type": "function",
      "constant": true
    },
    {
      "inputs": [
        {
          "internalType": "address",
          "name": "to",
          "type": "address"
        },
        {
          "internalType": "uint256",
          "name": "tokenId",
          "type": "uint256"
        }
      ],
      "name": "approve",
      "outputs": [],
      "stateMutability": "nonpayable",
      "type": "function"
    },
    {
      "inputs": [
        {
          "internalType": "address",
          "name": "owner",
          "type": "address"
        }
      ],
      "name": "balanceOf",
      "outputs": [
        {
          "internalType": "uint256",
          "name": "",
          "type": "uint256"
        }
      ],
      "stateMutability": "view",
      "type": "function",
      "constant": true
    },
    {
      "inputs": [
        {
          "internalType": "uint256",
          "name": "tokenId",
          "type": "uint256"
        }
      ],
      "name": "getApproved",
      "outputs": [
        {
          "internalType": "address",
          "name": "",
          "type": "address"
        }
      ],
      "stateMutability": "view",
      "type": "function",
      "constant": true
    },
    {
      "inputs": [
        {
          "internalType": "address",
          "name": "owner",
          "type": "address"
        },
        {
          "internalType": "address",
          "name": "operator",
          "type": "address"
        }
      ],
      "name": "isApprovedForAll",
      "outputs": [
        {
          "internalType": "bool",
          "name": "",
          "type": "bool"
        }
      ],
      "stateMutability": "view",
      "type": "function",
      "constant": true
    },
    {
      "inputs": [],
      "name": "name",
      "outputs": [
        {
          "internalType": "string",
          "name": "",
          "type": "string"
        }
      ],
      "stateMutability": "view",
      "type": "function",
      "constant": true
    },
    {
      "inputs": [],
      "name": "owner",
      "outputs": [
        {
          "internalType": "address",
          "name": "",
          "type": "address"
        }
      ],
      "stateMutability": "view",
      "type": "function",
      "constant": true
    },
    {
      "inputs": [
        {
          "internalType": "uint256",
          "name": "tokenId",
          "type": "uint256"
        }
      ],
      "name": "ownerOf",
      "outputs": [
        {
          "internalType": "address",
          "name": "",
          "type": "address"
        }
      ],
      "stateMutability": "view",
      "type": "function",
      "constant": true
    },
    {
      "inputs": [],
      "name": "renounceOwnership",
      "outputs": [],
      "stateMutability": "nonpayable",
      "type": "function"
    },
    {
      "inputs": [
        {
          "internalType": "address",
          "name": "from",
          "type": "address"
        },
        {
          "internalType": "address",
          "name": "to",
          "type": "address"
        },
        {
          "internalType": "uint256",
          "name": "tokenId",
          "type": "uint256"
        }
      ],
      "name": "safeTransferFrom",
      "outputs": [],
      "stateMutability": "nonpayable",
      "type": "function"
    },
    {
      "inputs": [
        {
          "internalType": "address",
          "name": "from",
          "type": "address"
        },
        {
          "internalType": "address",
          "name": "to",
          "type": "address"
        },
        {
          "internalType": "uint256",
          "name": "tokenId",
          "type": "uint256"
        },
        {
          "internalType": "bytes",
          "name": "_data",
          "type": "bytes"
        }
      ],
      "name": "safeTransferFrom",
      "outputs": [],
      "stateMutability": "nonpayable",
      "type": "function"
    },
    {
      "inputs": [
        {
          "internalType": "address",
          "name": "operator",
          "type": "address"
        },
        {
          "internalType": "bool",
          "name": "approved",
          "type": "bool"
        }
      ],
      "name": "setApprovalForAll",
      "outputs": [],
      "stateMutability": "nonpayable",
      "type": "function"
    },
    {
      "inputs": [
        {
          "internalType": "bytes4",
          "name": "interfaceId",
          "type": "bytes4"
        }
      ],
      "name": "supportsInterface",
      "outputs": [
        {
          "internalType": "bool",
          "name": "",
          "type": "bool"
        }
      ],
      "stateMutability": "view",
      "type": "function",
      "constant": true
    },
    {
      "inputs": [],
      "name": "symbol",
      "outputs": [
        {
          "internalType": "string",
          "name": "",
          "type": "string"
        }
      ],
      "stateMutability": "view",
      "type": "function",
      "constant": true
    },
    {
      "inputs": [
        {
          "internalType": "uint256",
          "name": "tokenId",
          "type": "uint256"
        }
      ],
      "name": "tokenURI",
      "outputs": [
        {
          "internalType": "string",
          "name": "",
          "type": "string"
        }
      ],
      "stateMutability": "view",
      "type": "function",
      "constant": true
    },
    {
      "inputs": [
        {
          "internalType": "address",
          "name": "from",
          "type": "address"
        },
        {
          "internalType": "address",
          "name": "to",
          "type": "address"
        },
        {
          "internalType": "uint256",
          "name": "tokenId",
          "type": "uint256"
        }
      ],
      "name": "transferFrom",
      "outputs": [],
      "stateMutability": "nonpayable",
      "type": "function"
    },
    {
      "inputs": [
        {
          "internalType": "address",
          "name": "newOwner",
          "type": "address"
        }
      ],
      "name": "transferOwnership",
      "outputs": [],
      "stateMutability": "nonpayable",
      "type": "function"
    },
    {
      "inputs": [
        {
          "internalType": "uint256",
          "name": "_countOfNFT",
          "type": "uint256"
        }
      ],
      "name": "publicSaleMint",
      "outputs": [],
      "stateMutability": "payable",
      "type": "function",
      "payable": true
    },
    {
      "inputs": [
        {
          "internalType": "address",
          "name": "_owner",
          "type": "address"
        },
        {
          "internalType": "uint256",
          "name": "startId",
          "type": "uint256"
        },
        {
          "internalType": "uint256",
          "name": "endId",
          "type": "uint256"
        }
      ],
      "name": "tokensOfOwner",
      "outputs": [
        {
          "internalType": "uint256[]",
          "name": "",
          "type": "uint256[]"
        }
      ],
      "stateMutability": "view",
      "type": "function",
      "constant": true
    },
    {
      "inputs": [],
      "name": "currentSupply",
      "outputs": [
        {
          "internalType": "uint256",
          "name": "",
          "type": "uint256"
        }
      ],
      "stateMutability": "view",
      "type": "function",
      "constant": true
    },
    {
      "inputs": [
        {
          "internalType": "string",
          "name": "newBaseURI_",
          "type": "string"
        }
      ],
      "name": "setBaseURI",
      "outputs": [],
      "stateMutability": "nonpayable",
      "type": "function"
    }
  ],
  "bytecode": "0x60806040523480156200001157600080fd5b5060405162003b2838038062003b288339818101604052810190620000379190620003f7565b8282816000908051906020019062000051929190620001aa565b5080600190805190602001906200006a929190620001aa565b5050506200008d62000081620000c660201b60201c565b620000ce60201b60201c565b8060089080519060200190620000a5929190620001aa565b50620000bd60076200019460201b620012221760201c565b50505062000515565b600033905090565b6000600660009054906101000a900473ffffffffffffffffffffffffffffffffffffffff16905081600660006101000a81548173ffffffffffffffffffffffffffffffffffffffff021916908373ffffffffffffffffffffffffffffffffffffffff1602179055508173ffffffffffffffffffffffffffffffffffffffff168173ffffffffffffffffffffffffffffffffffffffff167f8be0079c531659141344cd1fd0a4f28419497f9722a3daafe3b4186f6b6457e060405160405180910390a35050565b6001816000016000828254019250508190555050565b828054620001b890620004df565b90600052602060002090601f016020900481019282620001dc576000855562000228565b82601f10620001f757805160ff191683800117855562000228565b8280016001018555821562000228579182015b82811115620002275782518255916020019190600101906200020a565b5b5090506200023791906200023b565b5090565b5b80821115620002565760008160009055506001016200023c565b5090565b6000604051905090565b600080fd5b600080fd5b600080fd5b600080fd5b6000601f19601f8301169050919050565b7f4e487b7100000000000000000000000000000000000000000000000000000000600052604160045260246000fd5b620002c38262000278565b810181811067ffffffffffffffff82111715620002e557620002e462000289565b5b80604052505050565b6000620002fa6200025a565b9050620003088282620002b8565b919050565b600067ffffffffffffffff8211156200032b576200032a62000289565b5b620003368262000278565b9050602081019050919050565b60005b838110156200036357808201518184015260208101905062000346565b8381111562000373576000848401525b50505050565b6000620003906200038a846200030d565b620002ee565b905082815260208101848484011115620003af57620003ae62000273565b5b620003bc84828562000343565b509392505050565b600082601f830112620003dc57620003db6200026e565b5b8151620003ee84826020860162000379565b91505092915050565b60008060006060848603121562000413576200041262000264565b5b600084015167ffffffffffffffff81111562000434576200043362000269565b5b6200044286828701620003c4565b935050602084015167ffffffffffffffff81111562000466576200046562000269565b5b6200047486828701620003c4565b925050604084015167ffffffffffffffff81111562000498576200049762000269565b5b620004a686828701620003c4565b9150509250925092565b7f4e487b7100000000000000000000000000000000000000000000000000000000600052602260045260246000fd5b60006002820490506001821680620004f857607f821691505b602082108114156200050f576200050e620004b0565b5b50919050565b61360380620005256000396000f3fe60806040526004361061014b5760003560e01c80638da5cb5b116100b6578063b88d4fde1161006f578063b88d4fde14610471578063c002d23d1461049a578063c839fe94146104c5578063c87b56dd14610502578063e985e9c51461053f578063f2fde38b1461057c5761014b565b80638da5cb5b14610380578063902d55a5146103ab57806395d89b41146103d6578063a22cb46514610401578063a5df9dd41461042a578063b3ab66b0146104555761014b565b806342842e0e1161010857806342842e0e1461027257806355f804b31461029b5780636352211e146102c457806370a0823114610301578063715018a61461033e578063771282f6146103555761014b565b806301ffc9a71461015057806306fdde031461018d578063081812fc146101b8578063095ea7b3146101f55780630c7c90bb1461021e57806323b872dd14610249575b600080fd5b34801561015c57600080fd5b506101776004803603810190610172919061203b565b6105a5565b6040516101849190612083565b60405180910390f35b34801561019957600080fd5b506101a2610687565b6040516101af9190612137565b60405180910390f35b3480156101c457600080fd5b506101df60048036038101906101da919061218f565b610719565b6040516101ec91906121fd565b60405180910390f35b34801561020157600080fd5b5061021c60048036038101906102179190612244565b61079e565b005b34801561022a57600080fd5b506102336108b6565b6040516102409190612293565b60405180910390f35b34801561025557600080fd5b50610270600480360381019061026b91906122ae565b6108bb565b005b34801561027e57600080fd5b50610299600480360381019061029491906122ae565b61091b565b005b3480156102a757600080fd5b506102c260048036038101906102bd9190612436565b61093b565b005b3480156102d057600080fd5b506102eb60048036038101906102e6919061218f565b6109d1565b6040516102f891906121fd565b60405180910390f35b34801561030d57600080fd5b506103286004803603810190610323919061247f565b610a83565b6040516103359190612293565b60405180910390f35b34801561034a57600080fd5b50610353610b3b565b005b34801561036157600080fd5b5061036a610bc3565b6040516103779190612293565b60405180910390f35b34801561038c57600080fd5b50610395610be0565b6040516103a291906121fd565b60405180910390f35b3480156103b757600080fd5b506103c0610c0a565b6040516103cd9190612293565b60405180910390f35b3480156103e257600080fd5b506103eb610c10565b6040516103f89190612137565b60405180910390f35b34801561040d57600080fd5b50610428600480360381019061042391906124d8565b610ca2565b005b34801561043657600080fd5b5061043f610cb8565b60405161044c9190612293565b60405180910390f35b61046f600480360381019061046a919061218f565b610cbd565b005b34801561047d57600080fd5b50610498600480360381019061049391906125b9565b610e23565b005b3480156104a657600080fd5b506104af610e85565b6040516104bc9190612293565b60405180910390f35b3480156104d157600080fd5b506104ec60048036038101906104e7919061263c565b610e90565b6040516104f9919061274d565b60405180910390f35b34801561050e57600080fd5b506105296004803603810190610524919061218f565b610fef565b6040516105369190612137565b60405180910390f35b34801561054b57600080fd5b506105666004803603810190610561919061276f565b611096565b6040516105739190612083565b60405180910390f35b34801561058857600080fd5b506105a3600480360381019061059e919061247f565b61112a565b005b60007f80ac58cd000000000000000000000000000000000000000000000000000000007bffffffffffffffffffffffffffffffffffffffffffffffffffffffff1916827bffffffffffffffffffffffffffffffffffffffffffffffffffffffff1916148061067057507f5b5e139f000000000000000000000000000000000000000000000000000000007bffffffffffffffffffffffffffffffffffffffffffffffffffffffff1916827bffffffffffffffffffffffffffffffffffffffffffffffffffffffff1916145b80610680575061067f82611238565b5b9050919050565b606060008054610696906127de565b80601f01602080910402602001604051908101604052809291908181526020018280546106c2906127de565b801561070f5780601f106106e45761010080835404028352916020019161070f565b820191906000526020600020905b8154815290600101906020018083116106f257829003601f168201915b5050505050905090565b6000610724826112a2565b610763576040517f08c379a000000000000000000000000000000000000000000000000000000000815260040161075a90612882565b60405180910390fd5b6004600083815260200190815260200160002060009054906101000a900473ffffffffffffffffffffffffffffffffffffffff169050919050565b60006107a9826109d1565b90508073ffffffffffffffffffffffffffffffffffffffff168373ffffffffffffffffffffffffffffffffffffffff16141561081a576040517f08c379a000000000000000000000000000000000000000000000000000000000815260040161081190612914565b60405180910390fd5b8073ffffffffffffffffffffffffffffffffffffffff1661083961130e565b73ffffffffffffffffffffffffffffffffffffffff16148061086857506108678161086261130e565b611096565b5b6108a7576040517f08c379a000000000000000000000000000000000000000000000000000000000815260040161089e906129a6565b60405180910390fd5b6108b18383611316565b505050565b600f81565b6108cc6108c661130e565b826113cf565b61090b576040517f08c379a000000000000000000000000000000000000000000000000000000000815260040161090290612a38565b60405180910390fd5b6109168383836114ad565b505050565b61093683838360405180602001604052806000815250610e23565b505050565b61094361130e565b73ffffffffffffffffffffffffffffffffffffffff16610961610be0565b73ffffffffffffffffffffffffffffffffffffffff16146109b7576040517f08c379a00000000000000000000000000000000000000000000000000000000081526004016109ae90612aa4565b60405180910390fd5b80600890805190602001906109cd929190611f2c565b5050565b6000806002600084815260200190815260200160002060009054906101000a900473ffffffffffffffffffffffffffffffffffffffff169050600073ffffffffffffffffffffffffffffffffffffffff168173ffffffffffffffffffffffffffffffffffffffff161415610a7a576040517f08c379a0000000000000000000000000000000000000000000000000000000008152600401610a7190612b36565b60405180910390fd5b80915050919050565b60008073ffffffffffffffffffffffffffffffffffffffff168273ffffffffffffffffffffffffffffffffffffffff161415610af4576040517f08c379a0000000000000000000000000000000000000000000000000000000008152600401610aeb90612bc8565b60405180910390fd5b600360008373ffffffffffffffffffffffffffffffffffffffff1673ffffffffffffffffffffffffffffffffffffffff168152602001908152602001600020549050919050565b610b4361130e565b73ffffffffffffffffffffffffffffffffffffffff16610b61610be0565b73ffffffffffffffffffffffffffffffffffffffff1614610bb7576040517f08c379a0000000000000000000000000000000000000000000000000000000008152600401610bae90612aa4565b60405180910390fd5b610bc16000611709565b565b60006001610bd160076117cf565b610bdb9190612c17565b905090565b6000600660009054906101000a900473ffffffffffffffffffffffffffffffffffffffff16905090565b61078381565b606060018054610c1f906127de565b80601f0160208091040260200160405190810160405280929190818152602001828054610c4b906127de565b8015610c985780601f10610c6d57610100808354040283529160200191610c98565b820191906000526020600020905b815481529060010190602001808311610c7b57829003601f168201915b5050505050905090565b610cb4610cad61130e565b83836117dd565b5050565b600581565b6611c37937e0800081610cd09190612c4b565b341015610d12576040517f08c379a0000000000000000000000000000000000000000000000000000000008152600401610d0990612cf1565b60405180910390fd5b6005811115610d56576040517f08c379a0000000000000000000000000000000000000000000000000000000008152600401610d4d90612d5d565b60405180910390fd5b600f610d6133610a83565b1115610da2576040517f08c379a0000000000000000000000000000000000000000000000000000000008152600401610d9990612def565b60405180910390fd5b61078381610dae610bc3565b610db89190612e0f565b1115610df9576040517f08c379a0000000000000000000000000000000000000000000000000000000008152600401610df090612eb1565b60405180910390fd5b60005b81811015610e1f57610e0c61194a565b8080610e1790612ed1565b915050610dfc565b5050565b610e34610e2e61130e565b836113cf565b610e73576040517f08c379a0000000000000000000000000000000000000000000000000000000008152600401610e6a90612a38565b60405180910390fd5b610e7f8484848461196f565b50505050565b6611c37937e0800081565b60606000610e9d85610a83565b90506000811415610efa57600067ffffffffffffffff811115610ec357610ec261230b565b5b604051908082528060200260200182016040528015610ef15781602001602082028036833780820191505090505b50915050610fe8565b60008167ffffffffffffffff811115610f1657610f1561230b565b5b604051908082528060200260200182016040528015610f445781602001602082028036833780820191505090505b5090506000808690505b858111610fe05783821415610f6257610fe0565b8773ffffffffffffffffffffffffffffffffffffffff16610f82826109d1565b73ffffffffffffffffffffffffffffffffffffffff161415610fcd5780838381518110610fb257610fb1612f1a565b5b6020026020010181815250508180610fc990612ed1565b9250505b8080610fd890612ed1565b915050610f4e565b508193505050505b9392505050565b6060610ffa826112a2565b611039576040517f08c379a000000000000000000000000000000000000000000000000000000000815260040161103090612fbb565b60405180910390fd5b60006110436119cb565b90506000815111611063576040518060200160405280600081525061108e565b8061106d84611a5d565b60405160200161107e929190613017565b6040516020818303038152906040525b915050919050565b6000600560008473ffffffffffffffffffffffffffffffffffffffff1673ffffffffffffffffffffffffffffffffffffffff16815260200190815260200160002060008373ffffffffffffffffffffffffffffffffffffffff1673ffffffffffffffffffffffffffffffffffffffff16815260200190815260200160002060009054906101000a900460ff16905092915050565b61113261130e565b73ffffffffffffffffffffffffffffffffffffffff16611150610be0565b73ffffffffffffffffffffffffffffffffffffffff16146111a6576040517f08c379a000000000000000000000000000000000000000000000000000000000815260040161119d90612aa4565b60405180910390fd5b600073ffffffffffffffffffffffffffffffffffffffff168173ffffffffffffffffffffffffffffffffffffffff161415611216576040517f08c379a000000000000000000000000000000000000000000000000000000000815260040161120d906130ad565b60405180910390fd5b61121f81611709565b50565b6001816000016000828254019250508190555050565b60007f01ffc9a7000000000000000000000000000000000000000000000000000000007bffffffffffffffffffffffffffffffffffffffffffffffffffffffff1916827bffffffffffffffffffffffffffffffffffffffffffffffffffffffff1916149050919050565b60008073ffffffffffffffffffffffffffffffffffffffff166002600084815260200190815260200160002060009054906101000a900473ffffffffffffffffffffffffffffffffffffffff1673ffffffffffffffffffffffffffffffffffffffff1614159050919050565b600033905090565b816004600083815260200190815260200160002060006101000a81548173ffffffffffffffffffffffffffffffffffffffff021916908373ffffffffffffffffffffffffffffffffffffffff160217905550808273ffffffffffffffffffffffffffffffffffffffff16611389836109d1565b73ffffffffffffffffffffffffffffffffffffffff167f8c5be1e5ebec7d5bd14f71427d1e84f3dd0314c0f7b2291e5b200ac8c7c3b92560405160405180910390a45050565b60006113da826112a2565b611419576040517f08c379a00000000000000000000000000000000000000000000000000000000081526004016114109061313f565b60405180910390fd5b6000611424836109d1565b90508073ffffffffffffffffffffffffffffffffffffffff168473ffffffffffffffffffffffffffffffffffffffff16148061149357508373ffffffffffffffffffffffffffffffffffffffff1661147b84610719565b73ffffffffffffffffffffffffffffffffffffffff16145b806114a457506114a38185611096565b5b91505092915050565b8273ffffffffffffffffffffffffffffffffffffffff166114cd826109d1565b73ffffffffffffffffffffffffffffffffffffffff1614611523576040517f08c379a000000000000000000000000000000000000000000000000000000000815260040161151a906131d1565b60405180910390fd5b600073ffffffffffffffffffffffffffffffffffffffff168273ffffffffffffffffffffffffffffffffffffffff161415611593576040517f08c379a000000000000000000000000000000000000000000000000000000000815260040161158a90613263565b60405180910390fd5b61159e838383611bbe565b6115a9600082611316565b6001600360008573ffffffffffffffffffffffffffffffffffffffff1673ffffffffffffffffffffffffffffffffffffffff16815260200190815260200160002060008282546115f99190612c17565b925050819055506001600360008473ffffffffffffffffffffffffffffffffffffffff1673ffffffffffffffffffffffffffffffffffffffff16815260200190815260200160002060008282546116509190612e0f565b92505081905550816002600083815260200190815260200160002060006101000a81548173ffffffffffffffffffffffffffffffffffffffff021916908373ffffffffffffffffffffffffffffffffffffffff160217905550808273ffffffffffffffffffffffffffffffffffffffff168473ffffffffffffffffffffffffffffffffffffffff167fddf252ad1be2c89b69c2b068fc378daa952ba7f163c4a11628f55a4df523b3ef60405160405180910390a4505050565b6000600660009054906101000a900473ffffffffffffffffffffffffffffffffffffffff16905081600660006101000a81548173ffffffffffffffffffffffffffffffffffffffff021916908373ffffffffffffffffffffffffffffffffffffffff1602179055508173ffffffffffffffffffffffffffffffffffffffff168173ffffffffffffffffffffffffffffffffffffffff167f8be0079c531659141344cd1fd0a4f28419497f9722a3daafe3b4186f6b6457e060405160405180910390a35050565b600081600001549050919050565b8173ffffffffffffffffffffffffffffffffffffffff168373ffffffffffffffffffffffffffffffffffffffff16141561184c576040517f08c379a0000000000000000000000000000000000000000000000000000000008152600401611843906132cf565b60405180910390fd5b80600560008573ffffffffffffffffffffffffffffffffffffffff1673ffffffffffffffffffffffffffffffffffffffff16815260200190815260200160002060008473ffffffffffffffffffffffffffffffffffffffff1673ffffffffffffffffffffffffffffffffffffffff16815260200190815260200160002060006101000a81548160ff0219169083151502179055508173ffffffffffffffffffffffffffffffffffffffff168373ffffffffffffffffffffffffffffffffffffffff167f17307eab39ab6107e8899845ad3d59bd9653f200f220920489ca2b5937696c318360405161193d9190612083565b60405180910390a3505050565b600061195660076117cf565b90506119626007611222565b61196c3382611bc3565b50565b61197a8484846114ad565b61198684848484611d91565b6119c5576040517f08c379a00000000000000000000000000000000000000000000000000000000081526004016119bc90613361565b60405180910390fd5b50505050565b6060600880546119da906127de565b80601f0160208091040260200160405190810160405280929190818152602001828054611a06906127de565b8015611a535780601f10611a2857610100808354040283529160200191611a53565b820191906000526020600020905b815481529060010190602001808311611a3657829003601f168201915b5050505050905090565b60606000821415611aa5576040518060400160405280600181526020017f30000000000000000000000000000000000000000000000000000000000000008152509050611bb9565b600082905060005b60008214611ad7578080611ac090612ed1565b915050600a82611ad091906133b0565b9150611aad565b60008167ffffffffffffffff811115611af357611af261230b565b5b6040519080825280601f01601f191660200182016040528015611b255781602001600182028036833780820191505090505b5090505b60008514611bb257600182611b3e9190612c17565b9150600a85611b4d91906133e1565b6030611b599190612e0f565b60f81b818381518110611b6f57611b6e612f1a565b5b60200101907effffffffffffffffffffffffffffffffffffffffffffffffffffffffffffff1916908160001a905350600a85611bab91906133b0565b9450611b29565b8093505050505b919050565b505050565b600073ffffffffffffffffffffffffffffffffffffffff168273ffffffffffffffffffffffffffffffffffffffff161415611c33576040517f08c379a0000000000000000000000000000000000000000000000000000000008152600401611c2a9061345e565b60405180910390fd5b611c3c816112a2565b15611c7c576040517f08c379a0000000000000000000000000000000000000000000000000000000008152600401611c73906134ca565b60405180910390fd5b611c8860008383611bbe565b6001600360008473ffffffffffffffffffffffffffffffffffffffff1673ffffffffffffffffffffffffffffffffffffffff1681526020019081526020016000206000828254611cd89190612e0f565b92505081905550816002600083815260200190815260200160002060006101000a81548173ffffffffffffffffffffffffffffffffffffffff021916908373ffffffffffffffffffffffffffffffffffffffff160217905550808273ffffffffffffffffffffffffffffffffffffffff16600073ffffffffffffffffffffffffffffffffffffffff167fddf252ad1be2c89b69c2b068fc378daa952ba7f163c4a11628f55a4df523b3ef60405160405180910390a45050565b6000611db28473ffffffffffffffffffffffffffffffffffffffff16611f19565b15611f0c578373ffffffffffffffffffffffffffffffffffffffff1663150b7a02611ddb61130e565b8786866040518563ffffffff1660e01b8152600401611dfd949392919061353f565b6020604051808303816000875af1925050508015611e3957506040513d601f19601f82011682018060405250810190611e3691906135a0565b60015b611ebc573d8060008114611e69576040519150601f19603f3d011682016040523d82523d6000602084013e611e6e565b606091505b50600081511415611eb4576040517f08c379a0000000000000000000000000000000000000000000000000000000008152600401611eab90613361565b60405180910390fd5b805181602001fd5b63150b7a0260e01b7bffffffffffffffffffffffffffffffffffffffffffffffffffffffff1916817bffffffffffffffffffffffffffffffffffffffffffffffffffffffff191614915050611f11565b600190505b949350505050565b600080823b905060008111915050919050565b828054611f38906127de565b90600052602060002090601f016020900481019282611f5a5760008555611fa1565b82601f10611f7357805160ff1916838001178555611fa1565b82800160010185558215611fa1579182015b82811115611fa0578251825591602001919060010190611f85565b5b509050611fae9190611fb2565b5090565b5b80821115611fcb576000816000905550600101611fb3565b5090565b6000604051905090565b600080fd5b600080fd5b60007fffffffff0000000000000000000000000000000000000000000000000000000082169050919050565b61201881611fe3565b811461202357600080fd5b50565b6000813590506120358161200f565b92915050565b60006020828403121561205157612050611fd9565b5b600061205f84828501612026565b91505092915050565b60008115159050919050565b61207d81612068565b82525050565b60006020820190506120986000830184612074565b92915050565b600081519050919050565b600082825260208201905092915050565b60005b838110156120d85780820151818401526020810190506120bd565b838111156120e7576000848401525b50505050565b6000601f19601f8301169050919050565b60006121098261209e565b61211381856120a9565b93506121238185602086016120ba565b61212c816120ed565b840191505092915050565b6000602082019050818103600083015261215181846120fe565b905092915050565b6000819050919050565b61216c81612159565b811461217757600080fd5b50565b60008135905061218981612163565b92915050565b6000602082840312156121a5576121a4611fd9565b5b60006121b38482850161217a565b91505092915050565b600073ffffffffffffffffffffffffffffffffffffffff82169050919050565b60006121e7826121bc565b9050919050565b6121f7816121dc565b82525050565b600060208201905061221260008301846121ee565b92915050565b612221816121dc565b811461222c57600080fd5b50565b60008135905061223e81612218565b92915050565b6000806040838503121561225b5761225a611fd9565b5b60006122698582860161222f565b925050602061227a8582860161217a565b9150509250929050565b61228d81612159565b82525050565b60006020820190506122a86000830184612284565b92915050565b6000806000606084860312156122c7576122c6611fd9565b5b60006122d58682870161222f565b93505060206122e68682870161222f565b92505060406122f78682870161217a565b9150509250925092565b600080fd5b600080fd5b7f4e487b7100000000000000000000000000000000000000000000000000000000600052604160045260246000fd5b612343826120ed565b810181811067ffffffffffffffff821117156123625761236161230b565b5b80604052505050565b6000612375611fcf565b9050612381828261233a565b919050565b600067ffffffffffffffff8211156123a1576123a061230b565b5b6123aa826120ed565b9050602081019050919050565b82818337600083830152505050565b60006123d96123d484612386565b61236b565b9050828152602081018484840111156123f5576123f4612306565b5b6124008482856123b7565b509392505050565b600082601f83011261241d5761241c612301565b5b813561242d8482602086016123c6565b91505092915050565b60006020828403121561244c5761244b611fd9565b5b600082013567ffffffffffffffff81111561246a57612469611fde565b5b61247684828501612408565b91505092915050565b60006020828403121561249557612494611fd9565b5b60006124a38482850161222f565b91505092915050565b6124b581612068565b81146124c057600080fd5b50565b6000813590506124d2816124ac565b92915050565b600080604083850312156124ef576124ee611fd9565b5b60006124fd8582860161222f565b925050602061250e858286016124c3565b9150509250929050565b600067ffffffffffffffff8211156125335761253261230b565b5b61253c826120ed565b9050602081019050919050565b600061255c61255784612518565b61236b565b90508281526020810184848401111561257857612577612306565b5b6125838482856123b7565b509392505050565b600082601f8301126125a05761259f612301565b5b81356125b0848260208601612549565b91505092915050565b600080600080608085870312156125d3576125d2611fd9565b5b60006125e18782880161222f565b94505060206125f28782880161222f565b93505060406126038782880161217a565b925050606085013567ffffffffffffffff81111561262457612623611fde565b5b6126308782880161258b565b91505092959194509250565b60008060006060848603121561265557612654611fd9565b5b60006126638682870161222f565b93505060206126748682870161217a565b92505060406126858682870161217a565b9150509250925092565b600081519050919050565b600082825260208201905092915050565b6000819050602082019050919050565b6126c481612159565b82525050565b60006126d683836126bb565b60208301905092915050565b6000602082019050919050565b60006126fa8261268f565b612704818561269a565b935061270f836126ab565b8060005b8381101561274057815161272788826126ca565b9750612732836126e2565b925050600181019050612713565b5085935050505092915050565b6000602082019050818103600083015261276781846126ef565b905092915050565b6000806040838503121561278657612785611fd9565b5b60006127948582860161222f565b92505060206127a58582860161222f565b9150509250929050565b7f4e487b7100000000000000000000000000000000000000000000000000000000600052602260045260246000fd5b600060028204905060018216806127f657607f821691505b6020821081141561280a576128096127af565b5b50919050565b7f4552433732313a20617070726f76656420717565727920666f72206e6f6e657860008201527f697374656e7420746f6b656e0000000000000000000000000000000000000000602082015250565b600061286c602c836120a9565b915061287782612810565b604082019050919050565b6000602082019050818103600083015261289b8161285f565b9050919050565b7f4552433732313a20617070726f76616c20746f2063757272656e74206f776e6560008201527f7200000000000000000000000000000000000000000000000000000000000000602082015250565b60006128fe6021836120a9565b9150612909826128a2565b604082019050919050565b6000602082019050818103600083015261292d816128f1565b9050919050565b7f4552433732313a20617070726f76652063616c6c6572206973206e6f74206f7760008201527f6e6572206e6f7220617070726f76656420666f7220616c6c0000000000000000602082015250565b60006129906038836120a9565b915061299b82612934565b604082019050919050565b600060208201905081810360008301526129bf81612983565b9050919050565b7f4552433732313a207472616e736665722063616c6c6572206973206e6f74206f60008201527f776e6572206e6f7220617070726f766564000000000000000000000000000000602082015250565b6000612a226031836120a9565b9150612a2d826129c6565b604082019050919050565b60006020820190508181036000830152612a5181612a15565b9050919050565b7f4f776e61626c653a2063616c6c6572206973206e6f7420746865206f776e6572600082015250565b6000612a8e6020836120a9565b9150612a9982612a58565b602082019050919050565b60006020820190508181036000830152612abd81612a81565b9050919050565b7f4552433732313a206f776e657220717565727920666f72206e6f6e657869737460008201527f656e7420746f6b656e0000000000000000000000000000000000000000000000602082015250565b6000612b206029836120a9565b9150612b2b82612ac4565b604082019050919050565b60006020820190508181036000830152612b4f81612b13565b9050919050565b7f4552433732313a2062616c616e636520717565727920666f7220746865207a6560008201527f726f206164647265737300000000000000000000000000000000000000000000602082015250565b6000612bb2602a836120a9565b9150612bbd82612b56565b604082019050919050565b60006020820190508181036000830152612be181612ba5565b9050919050565b7f4e487b7100000000000000000000000000000000000000000000000000000000600052601160045260246000fd5b6000612c2282612159565b9150612c2d83612159565b925082821015612c4057612c3f612be8565b5b828203905092915050565b6000612c5682612159565b9150612c6183612159565b9250817fffffffffffffffffffffffffffffffffffffffffffffffffffffffffffffffff0483118215151615612c9a57612c99612be8565b5b828202905092915050565b7f4e6f7420656e6f7567682062616c616e63650000000000000000000000000000600082015250565b6000612cdb6012836120a9565b9150612ce682612ca5565b602082019050919050565b60006020820190508181036000830152612d0a81612cce565b9050919050565b7f4e6f7420616c6c6f77656420636f756e74207065722074780000000000000000600082015250565b6000612d476018836120a9565b9150612d5282612d11565b602082019050919050565b60006020820190508181036000830152612d7681612d3a565b9050919050565b7f5245414348454420544f204d4158204d494e5420434f554e542050455220414360008201527f434f554e54000000000000000000000000000000000000000000000000000000602082015250565b6000612dd96025836120a9565b9150612de482612d7d565b604082019050919050565b60006020820190508181036000830152612e0881612dcc565b9050919050565b6000612e1a82612159565b9150612e2583612159565b9250827fffffffffffffffffffffffffffffffffffffffffffffffffffffffffffffffff03821115612e5a57612e59612be8565b5b828201905092915050565b7f5265616368656420746f20746f74616c20737570706c79000000000000000000600082015250565b6000612e9b6017836120a9565b9150612ea682612e65565b602082019050919050565b60006020820190508181036000830152612eca81612e8e565b9050919050565b6000612edc82612159565b91507fffffffffffffffffffffffffffffffffffffffffffffffffffffffffffffffff821415612f0f57612f0e612be8565b5b600182019050919050565b7f4e487b7100000000000000000000000000000000000000000000000000000000600052603260045260246000fd5b7f4552433732314d657461646174613a2055524920717565727920666f72206e6f60008201527f6e6578697374656e7420746f6b656e0000000000000000000000000000000000602082015250565b6000612fa5602f836120a9565b9150612fb082612f49565b604082019050919050565b60006020820190508181036000830152612fd481612f98565b9050919050565b600081905092915050565b6000612ff18261209e565b612ffb8185612fdb565b935061300b8185602086016120ba565b80840191505092915050565b60006130238285612fe6565b915061302f8284612fe6565b91508190509392505050565b7f4f776e61626c653a206e6577206f776e657220697320746865207a65726f206160008201527f6464726573730000000000000000000000000000000000000000000000000000602082015250565b60006130976026836120a9565b91506130a28261303b565b604082019050919050565b600060208201905081810360008301526130c68161308a565b9050919050565b7f4552433732313a206f70657261746f7220717565727920666f72206e6f6e657860008201527f697374656e7420746f6b656e0000000000000000000000000000000000000000602082015250565b6000613129602c836120a9565b9150613134826130cd565b604082019050919050565b600060208201905081810360008301526131588161311c565b9050919050565b7f4552433732313a207472616e73666572206f6620746f6b656e2074686174206960008201527f73206e6f74206f776e0000000000000000000000000000000000000000000000602082015250565b60006131bb6029836120a9565b91506131c68261315f565b604082019050919050565b600060208201905081810360008301526131ea816131ae565b9050919050565b7f4552433732313a207472616e7366657220746f20746865207a65726f2061646460008201527f7265737300000000000000000000000000000000000000000000000000000000602082015250565b600061324d6024836120a9565b9150613258826131f1565b604082019050919050565b6000602082019050818103600083015261327c81613240565b9050919050565b7f4552433732313a20617070726f766520746f2063616c6c657200000000000000600082015250565b60006132b96019836120a9565b91506132c482613283565b602082019050919050565b600060208201905081810360008301526132e8816132ac565b9050919050565b7f4552433732313a207472616e7366657220746f206e6f6e20455243373231526560008201527f63656976657220696d706c656d656e7465720000000000000000000000000000602082015250565b600061334b6032836120a9565b9150613356826132ef565b604082019050919050565b6000602082019050818103600083015261337a8161333e565b9050919050565b7f4e487b7100000000000000000000000000000000000000000000000000000000600052601260045260246000fd5b60006133bb82612159565b91506133c683612159565b9250826133d6576133d5613381565b5b828204905092915050565b60006133ec82612159565b91506133f783612159565b92508261340757613406613381565b5b828206905092915050565b7f4552433732313a206d696e7420746f20746865207a65726f2061646472657373600082015250565b60006134486020836120a9565b915061345382613412565b602082019050919050565b600060208201905081810360008301526134778161343b565b9050919050565b7f4552433732313a20746f6b656e20616c7265616479206d696e74656400000000600082015250565b60006134b4601c836120a9565b91506134bf8261347e565b602082019050919050565b600060208201905081810360008301526134e3816134a7565b9050919050565b600081519050919050565b600082825260208201905092915050565b6000613511826134ea565b61351b81856134f5565b935061352b8185602086016120ba565b613534816120ed565b840191505092915050565b600060808201905061355460008301876121ee565b61356160208301866121ee565b61356e6040830185612284565b81810360608301526135808184613506565b905095945050505050565b60008151905061359a8161200f565b92915050565b6000602082840312156135b6576135b5611fd9565b5b60006135c48482850161358b565b9150509291505056fea26469706673582212207be380b645616063987c8ad64c9ef53262e8c1c4b008034458c1f7b15e75d8bd64736f6c634300080b0033",
  "immutableReferences": {},
  "source": "//SPDX-License-Identifier: Unlicense\npragma solidity ^0.8.0;\n\n// @author: kaanfkennedy \n\nimport \"@openzeppelin/contracts/token/ERC721/ERC721.sol\";\nimport \"@openzeppelin/contracts/access/Ownable.sol\";\nimport \"@openzeppelin/contracts/utils/Strings.sol\";\nimport \"@openzeppelin/contracts/utils/Counters.sol\";\n\ncontract FPNFT is ERC721, Ownable {\n    using Counters for Counters.Counter;\n    Counters.Counter private _tokenIdCounter;\n    \n    string private BASE_URI;\n    \n    uint256 constant public MINT_PRICE = 0.005 ether;\n    uint256 constant public TOTAL_SUPPLY = 1923;\n    uint256 constant public MAX_MINT_COUNT_PER_TX = 5;\n    uint256 constant public MAX_MINT_COUNT_PER_ADRESS = 15;\n\n    address constant private developer = 0x73104A982DcF9E22633C9852A5125DAc881DEa22;\n    \n    mapping(address => uint256) private countOfNFTs;\n    mapping(address => bool) private whitelistedWallets;\n\n    constructor(string memory name, string memory symbol, string memory baseURI_) ERC721(name, symbol) {\n        BASE_URI = baseURI_;\n        _tokenIdCounter.increment();\n    }\n\n    function publicSaleMint(uint256 _countOfNFT) public payable {\n        require(msg.value >= (_countOfNFT * MINT_PRICE), \"Not enough balance\");\n        require(_countOfNFT <= MAX_MINT_COUNT_PER_TX, \"Not allowed count per tx\");\n        require(balanceOf(msg.sender) <= MAX_MINT_COUNT_PER_ADRESS, \"REACHED TO MAX MINT COUNT PER ACCOUNT\");\n        require((currentSupply() + _countOfNFT) <= TOTAL_SUPPLY, \"Reached to total supply\");\n\n        for(uint256 x = 0; x<_countOfNFT; x++) {\n            mintInternal();\n        }\n    }   \n\n    function mintInternal() internal {\n        uint256 _tokenID = _tokenIdCounter.current();\n        _tokenIdCounter.increment();\n        _mint(msg.sender, _tokenID);\n    }\n    \n    function tokensOfOwner(address _owner, uint startId, uint endId) external view returns(uint256[] memory ) {\n        uint256 tokenCount = balanceOf(_owner);\n\n        if (tokenCount == 0) {\n            return new uint256[](0);\n        } else {\n            uint256[] memory result = new uint256[](tokenCount);\n            uint256 index = 0;\n\n            for (uint256 tokenId = startId; tokenId <= endId; tokenId++) {\n                if (index == tokenCount) break;\n\n                if (ownerOf(tokenId) == _owner) {\n                    result[index] = tokenId;\n                    index++;\n                }\n            }\n\n            return result;\n        }\n    }\n    \n    \n    function _withdraw(address _address, uint256 _amount) private {\n        (bool success, ) = _address.call{value: _amount}(\"\");\n        require(success, \"Transfer failed.\");\n    }\n\n    function currentSupply() public view returns(uint256){\n        return _tokenIdCounter.current() - 1;\n    }\n\n    function setBaseURI(string memory newBaseURI_) public onlyOwner {\n        BASE_URI = newBaseURI_;\n    }\n    \n    function _baseURI() internal view override returns(string memory) {\n        return BASE_URI;\n    }\n}",
  "sourcePath": "/home/kaanfkennedy/Desktop/software/testNFTProject/testnftproject/src/truffle/contracts/FPNFT.sol",
  "compiler": {
    "name": "solc",
    "version": "0.8.11+commit.d7f03943.Emscripten.clang"
  },
  "schemaVersion": "3.4.4",
  "updatedAt": "2022-01-30T14:22:27.319Z",
  "networkType": "ethereum",
  "devdoc": {
    "kind": "dev",
    "methods": {
      "approve(address,uint256)": {
        "details": "See {IERC721-approve}."
      },
      "balanceOf(address)": {
        "details": "See {IERC721-balanceOf}."
      },
      "getApproved(uint256)": {
        "details": "See {IERC721-getApproved}."
      },
      "isApprovedForAll(address,address)": {
        "details": "See {IERC721-isApprovedForAll}."
      },
      "name()": {
        "details": "See {IERC721Metadata-name}."
      },
      "owner()": {
        "details": "Returns the address of the current owner."
      },
      "ownerOf(uint256)": {
        "details": "See {IERC721-ownerOf}."
      },
      "renounceOwnership()": {
        "details": "Leaves the contract without owner. It will not be possible to call `onlyOwner` functions anymore. Can only be called by the current owner. NOTE: Renouncing ownership will leave the contract without an owner, thereby removing any functionality that is only available to the owner."
      },
      "safeTransferFrom(address,address,uint256)": {
        "details": "See {IERC721-safeTransferFrom}."
      },
      "safeTransferFrom(address,address,uint256,bytes)": {
        "details": "See {IERC721-safeTransferFrom}."
      },
      "setApprovalForAll(address,bool)": {
        "details": "See {IERC721-setApprovalForAll}."
      },
      "supportsInterface(bytes4)": {
        "details": "See {IERC165-supportsInterface}."
      },
      "symbol()": {
        "details": "See {IERC721Metadata-symbol}."
      },
      "tokenURI(uint256)": {
        "details": "See {IERC721Metadata-tokenURI}."
      },
      "transferFrom(address,address,uint256)": {
        "details": "See {IERC721-transferFrom}."
      },
      "transferOwnership(address)": {
        "details": "Transfers ownership of the contract to a new account (`newOwner`). Can only be called by the current owner."
      }
    },
    "version": 1
  },
  "userdoc": {
    "kind": "user",
    "methods": {},
    "version": 1
  }
}